{
  "address": "0x2aa87B31a6a4DCB6f27beb8925B220CCE6b57Ee9",
  "abi": [
    {
      "inputs": [
        {
          "internalType": "address payable",
          "name": "_template",
          "type": "address"
        }
      ],
      "stateMutability": "nonpayable",
      "type": "constructor"
    },
    {
      "anonymous": false,
      "inputs": [
        {
          "indexed": true,
          "internalType": "address",
          "name": "baal",
          "type": "address"
        },
        {
          "indexed": false,
          "internalType": "address",
          "name": "onboarder",
          "type": "address"
        },
        {
          "indexed": false,
          "internalType": "address",
          "name": "token",
          "type": "address"
        },
        {
          "indexed": false,
          "internalType": "uint256",
          "name": "expiery",
          "type": "uint256"
        },
        {
          "indexed": false,
          "internalType": "string",
          "name": "details",
          "type": "string"
        },
        {
          "indexed": false,
          "internalType": "bool",
          "name": "_shares",
          "type": "bool"
        },
        {
          "indexed": false,
          "internalType": "address[]",
          "name": "_cuts",
          "type": "address[]"
        },
        {
          "indexed": false,
          "internalType": "uint256[]",
          "name": "_amounts",
          "type": "uint256[]"
        }
      ],
      "name": "SummonSimpleOnboarder",
      "type": "event"
    },
    {
      "inputs": [
        {
          "internalType": "address",
          "name": "_moloch",
          "type": "address"
        },
        {
          "internalType": "address payable",
          "name": "_token",
          "type": "address"
        },
        {
          "internalType": "uint256",
          "name": "_expiery",
          "type": "uint256"
        },
        {
          "internalType": "bool",
          "name": "_shares",
          "type": "bool"
        },
        {
          "internalType": "address[]",
          "name": "_cuts",
          "type": "address[]"
        },
        {
          "internalType": "uint256[]",
          "name": "_amounts",
          "type": "uint256[]"
        },
        {
          "internalType": "string",
          "name": "_details",
          "type": "string"
        }
      ],
      "name": "summonOnboarder",
      "outputs": [
        {
          "internalType": "address",
          "name": "",
          "type": "address"
        }
      ],
      "stateMutability": "nonpayable",
      "type": "function"
    },
    {
      "inputs": [],
      "name": "template",
      "outputs": [
        {
          "internalType": "address payable",
          "name": "",
          "type": "address"
        }
      ],
      "stateMutability": "view",
      "type": "function"
    }
  ],
  "transactionHash": "0xbbd11aad26b50182d5c4e5c152fdb1b5a283517d9107608ab4af8a08604dcde2",
  "args": [
    "0x1b060BD9E793ab5a7260E8a5C43Fbf034CC59E9d"
  ],
  "numDeployments": 1,
  "solcInputHash": "43be10181b7a59588d3281e0ea03b967",
  "bytecode": "0x608060405234801561001057600080fd5b5060405161069238038061069283398101604081905261002f91610054565b600080546001600160a01b0319166001600160a01b0392909216919091179055610084565b60006020828403121561006657600080fd5b81516001600160a01b038116811461007d57600080fd5b9392505050565b6105ff806100936000396000f3fe608060405234801561001057600080fd5b50600436106100365760003560e01c806368ed5a631461003b5780636f2ddd931461006a575b600080fd5b61004e6100493660046103a5565b61007d565b6040516001600160a01b03909116815260200160405180910390f35b60005461004e906001600160a01b031681565b600080548190610095906001600160a01b031661015c565b604051632e94ff0160e21b81529091506001600160a01b0382169063ba53fc04906100ce908d908d908d908d908d908d906004016104e7565b600060405180830381600087803b1580156100e857600080fd5b505af11580156100fc573d6000803e3d6000fd5b50505050896001600160a01b03167f716425a544f9d419ec5b067f776fba0f474f42e5369c55046aeab705bdd35fe9828b8b88888d8d8d604051610147989796959493929190610541565b60405180910390a29998505050505050505050565b6000763d602d80600a3d3981f3363d3d373d3d3d363d730000008260601b60e81c176000526e5af43d82803e903d91602b57fd5bf38260781b17602052603760096000f090506001600160a01b0381166101f55760405162461bcd60e51b8152602060048201526016602482015275115490cc4c4d8dce8818dc99585d194819985a5b195960521b604482015260640160405180910390fd5b919050565b6001600160a01b038116811461020f57600080fd5b50565b803580151581146101f557600080fd5b634e487b7160e01b600052604160045260246000fd5b604051601f8201601f1916810167ffffffffffffffff8111828210171561026157610261610222565b604052919050565b600067ffffffffffffffff82111561028357610283610222565b5060051b60200190565b600082601f83011261029e57600080fd5b813560206102b36102ae83610269565b610238565b82815260059290921b840181019181810190868411156102d257600080fd5b8286015b848110156102f65780356102e9816101fa565b83529183019183016102d6565b509695505050505050565b600082601f83011261031257600080fd5b813560206103226102ae83610269565b82815260059290921b8401810191818101908684111561034157600080fd5b8286015b848110156102f65780358352918301918301610345565b60008083601f84011261036e57600080fd5b50813567ffffffffffffffff81111561038657600080fd5b60208301915083602082850101111561039e57600080fd5b9250929050565b60008060008060008060008060e0898b0312156103c157600080fd5b88356103cc816101fa565b975060208901356103dc816101fa565b9650604089013595506103f160608a01610212565b9450608089013567ffffffffffffffff8082111561040e57600080fd5b61041a8c838d0161028d565b955060a08b013591508082111561043057600080fd5b61043c8c838d01610301565b945060c08b013591508082111561045257600080fd5b5061045f8b828c0161035c565b999c989b5096995094979396929594505050565b600081518084526020808501945080840160005b838110156104ac5781516001600160a01b031687529582019590820190600101610487565b509495945050505050565b600081518084526020808501945080840160005b838110156104ac578151875295820195908201906001016104cb565b6001600160a01b0387811682528616602082015260408101859052831515606082015260c06080820181905260009061052290830185610473565b82810360a084015261053481856104b7565b9998505050505050505050565b6001600160a01b038981168252881660208201526040810187905260e0606082018190528101859052600061010086888285013760008388018201528515156080840152601f8701601f19168301838103820160a08501526105a581830187610473565b91505082810360c08401526105ba81856104b7565b9b9a505050505050505050505056fea26469706673582212201be7504e11d6955d2ca23fb243056c93d2bea27d0120e38f54f8930ff93e30c364736f6c634300080a0033",
  "devdoc": {
    "kind": "dev",
    "methods": {},
    "version": 1
  },
  "userdoc": {
    "kind": "user",
    "methods": {},
    "version": 1
  },
  "storageLayout": {
    "storage": [
      {
        "astId": 13954,
        "contract": "contracts/SimpleOnboarder.sol:SimpleOnboarderShamanSummoner",
        "label": "template",
        "offset": 0,
        "slot": "0",
        "type": "t_address_payable"
      }
    ],
    "types": {
      "t_address_payable": {
        "encoding": "inplace",
        "label": "address payable",
        "numberOfBytes": "20"
      }
    }
  }
}