{
  "address": "0x1b060BD9E793ab5a7260E8a5C43Fbf034CC59E9d",
  "abi": [
    {
      "inputs": [],
      "stateMutability": "nonpayable",
      "type": "constructor"
    },
    {
      "anonymous": false,
      "inputs": [
        {
          "indexed": false,
          "internalType": "uint8",
          "name": "version",
          "type": "uint8"
        }
      ],
      "name": "Initialized",
      "type": "event"
    },
    {
      "anonymous": false,
      "inputs": [
        {
          "indexed": true,
          "internalType": "address",
          "name": "contributorAddress",
          "type": "address"
        },
        {
          "indexed": false,
          "internalType": "uint256",
          "name": "amount",
          "type": "uint256"
        },
        {
          "indexed": false,
          "internalType": "address",
          "name": "baal",
          "type": "address"
        },
        {
          "indexed": false,
          "internalType": "uint256",
          "name": "lootToCuts",
          "type": "uint256"
        }
      ],
      "name": "ObReceived",
      "type": "event"
    },
    {
      "inputs": [
        {
          "internalType": "uint256",
          "name": "",
          "type": "uint256"
        }
      ],
      "name": "amounts",
      "outputs": [
        {
          "internalType": "uint256",
          "name": "",
          "type": "uint256"
        }
      ],
      "stateMutability": "view",
      "type": "function"
    },
    {
      "inputs": [],
      "name": "baal",
      "outputs": [
        {
          "internalType": "contract IBaal",
          "name": "",
          "type": "address"
        }
      ],
      "stateMutability": "view",
      "type": "function"
    },
    {
      "inputs": [
        {
          "internalType": "uint256",
          "name": "",
          "type": "uint256"
        }
      ],
      "name": "cuts",
      "outputs": [
        {
          "internalType": "address",
          "name": "",
          "type": "address"
        }
      ],
      "stateMutability": "view",
      "type": "function"
    },
    {
      "inputs": [],
      "name": "expiery",
      "outputs": [
        {
          "internalType": "uint256",
          "name": "",
          "type": "uint256"
        }
      ],
      "stateMutability": "view",
      "type": "function"
    },
    {
      "inputs": [
        {
          "internalType": "address",
          "name": "_moloch",
          "type": "address"
        },
        {
          "internalType": "address payable",
          "name": "_token",
          "type": "address"
        },
        {
          "internalType": "uint256",
          "name": "_expiery",
          "type": "uint256"
        },
        {
          "internalType": "bool",
          "name": "_shares",
          "type": "bool"
        },
        {
          "internalType": "address[]",
          "name": "_cuts",
          "type": "address[]"
        },
        {
          "internalType": "uint256[]",
          "name": "_amounts",
          "type": "uint256[]"
        }
      ],
      "name": "init",
      "outputs": [],
      "stateMutability": "nonpayable",
      "type": "function"
    },
    {
      "inputs": [
        {
          "internalType": "uint256",
          "name": "_value",
          "type": "uint256"
        }
      ],
      "name": "onboarder",
      "outputs": [],
      "stateMutability": "nonpayable",
      "type": "function"
    },
    {
      "inputs": [],
      "name": "shares",
      "outputs": [
        {
          "internalType": "bool",
          "name": "",
          "type": "bool"
        }
      ],
      "stateMutability": "view",
      "type": "function"
    },
    {
      "inputs": [],
      "name": "token",
      "outputs": [
        {
          "internalType": "contract IERC20",
          "name": "",
          "type": "address"
        }
      ],
      "stateMutability": "view",
      "type": "function"
    }
  ],
  "transactionHash": "0x4780bea2a3c88be5658e27d48b69aa3be2224e8a4cdcbe3115af64677aba9c13",
  "args": [],
  "numDeployments": 1,
  "solcInputHash": "43be10181b7a59588d3281e0ea03b967",
  "bytecode": "0x608060405234801561001057600080fd5b506001600081905554610100900460ff161580801561003357506001805460ff16105b8061005d575061004c3061013160201b6107f21760201c565b15801561005d57506001805460ff16145b6100c45760405162461bcd60e51b815260206004820152602e60248201527f496e697469616c697a61626c653a20636f6e747261637420697320616c72656160448201526d191e481a5b9a5d1a585b1a5e995960921b606482015260840160405180910390fd5b6001805460ff19168117905580156100e6576001805461ff0019166101001790555b801561012b576001805461ff00191681556040519081527f7f26b83ff96e1f2b6a682f133852f6798a09c465da95921460cefb38474024989060200160405180910390a15b50610140565b6001600160a01b03163b151590565b610e108061014f6000396000f3fe608060405234801561001057600080fd5b50600436106100885760003560e01c8063ba53fc041161005b578063ba53fc0414610104578063e5a2a2a514610119578063eddcd33e1461012c578063fc0c546a1461013f57600080fd5b806303314efa1461008d57806345f0a44f146100af5780634c5911b6146100d0578063b27fb311146100d9575b600080fd5b60035461009a9060ff1681565b60405190151581526020015b60405180910390f35b6100c26100bd366004610a81565b610152565b6040519081526020016100a6565b6100c260025481565b6100ec6100e7366004610a81565b610173565b6040516001600160a01b0390911681526020016100a6565b610117610112366004610b93565b61019d565b005b6006546100ec906001600160a01b031681565b61011761013a366004610a81565b610318565b6007546100ec906001600160a01b031681565b6005818154811061016257600080fd5b600091825260209091200154905081565b6004818154811061018357600080fd5b6000918252602090912001546001600160a01b0316905081565b600154610100900460ff16158080156101ba57506001805460ff16105b806101d35750303b1580156101d357506001805460ff16145b61023b5760405162461bcd60e51b815260206004820152602e60248201527f496e697469616c697a61626c653a20636f6e747261637420697320616c72656160448201526d191e481a5b9a5d1a585b1a5e995960921b60648201526084015b60405180910390fd5b6001805460ff191681179055801561025d576001805461ff0019166101001790555b600680546001600160a01b03808a166001600160a01b031992831617909255600780549289169290911691909117905560028590556003805485151560ff1990911617905582516102b59060049060208601906109cc565b5081516102c9906005906020850190610a31565b50801561030f576001805461ff00191681556040519081527f7f26b83ff96e1f2b6a682f133852f6798a09c465da95921460cefb38474024989060200160405180910390a15b50505050505050565b610320610801565b6006546001600160a01b03166103605760405162461bcd60e51b8152602060048201526005602482015264085a5b9a5d60da1b6044820152606401610232565b426002541161039b5760405162461bcd60e51b81526020600482015260076024820152666578706965727960c81b6044820152606401610232565b60065460405163f3ae241560e01b81523060048201526001600160a01b039091169063f3ae241590602401602060405180830381865afa1580156103e3573d6000803e3d6000fd5b505050506040513d601f19601f820116820180604052508101906104079190610c97565b6104485760405162461bcd60e51b815260206004820152601260248201527129b430b6b0b7103737ba1036b0b730b3b2b960711b6044820152606401610232565b60075460065460408051636a5c1cc960e11b815290516001600160a01b03938416936323b872dd93339391169163d4b83992916004808201926020929091908290030181865afa1580156104a0573d6000803e3d6000fd5b505050506040513d601f19601f820116820180604052508101906104c49190610cbb565b6040516001600160e01b031960e085901b1681526001600160a01b03928316600482015291166024820152604481018490526064016020604051808303816000875af1158015610518573d6000803e3d6000fd5b505050506040513d601f19601f8201168201806040525081019061053c9190610c97565b61057a5760405162461bcd60e51b815260206004820152600f60248201526e151c985b9cd9995c8819985a5b1959608a1b6044820152606401610232565b610584338261085b565b60045460009067ffffffffffffffff8111156105a2576105a2610abd565b6040519080825280602002602001820160405280156105cb578160200160208202803683370190505b50905060005b60045481101561064857600481815481106105ee576105ee610cd8565b9060005260206000200160009054906101000a90046001600160a01b031682828151811061061e5761061e610cd8565b6001600160a01b03909216602092830291909101909101528061064081610d04565b9150506105d1565b50600554600090819067ffffffffffffffff81111561066957610669610abd565b604051908082528060200260200182016040528015610692578160200160208202803683370190505b50905060005b60055481101561072f5784600582815481106106b6576106b6610cd8565b90600052602060002001546106cb9190610d1f565b6106d59084610d3e565b925084600582815481106106eb576106eb610cd8565b90600052602060002001546107009190610d1f565b82828151811061071257610712610cd8565b60209081029190910101528061072781610d04565b915050610698565b506006546040516322936c2360e11b81526001600160a01b0390911690634526d846906107629086908590600401610d56565b600060405180830381600087803b15801561077c57600080fd5b505af1158015610790573d6000803e3d6000fd5b5050600654604080518881526001600160a01b03909216602083015281018590523392507f8d2dc8d327ef6f9a2e978cb805ab0b7a0649bc4c0d21f17da147a0a1a79e27ea915060600160405180910390a25050506107ef6001600055565b50565b6001600160a01b03163b151590565b600260005414156108545760405162461bcd60e51b815260206004820152601f60248201527f5265656e7472616e637947756172643a207265656e7472616e742063616c6c006044820152606401610232565b6002600055565b60408051600180825281830190925260009160208083019080368337019050509050828160008151811061089157610891610cd8565b6001600160a01b03929092166020928302919091019091015260408051600180825281830190925260009181602001602082028036833701905050905082816000815181106108e2576108e2610cd8565b602090810291909101015260035460ff161561096157600654604051632c78fd0360e21b81526001600160a01b039091169063b1e3f40c9061092a9085908590600401610d56565b600060405180830381600087803b15801561094457600080fd5b505af1158015610958573d6000803e3d6000fd5b505050506109c6565b6006546040516322936c2360e11b81526001600160a01b0390911690634526d846906109939085908590600401610d56565b600060405180830381600087803b1580156109ad57600080fd5b505af11580156109c1573d6000803e3d6000fd5b505050505b50505050565b828054828255906000526020600020908101928215610a21579160200282015b82811115610a2157825182546001600160a01b0319166001600160a01b039091161782556020909201916001909101906109ec565b50610a2d929150610a6c565b5090565b828054828255906000526020600020908101928215610a21579160200282015b82811115610a21578251825591602001919060010190610a51565b5b80821115610a2d5760008155600101610a6d565b600060208284031215610a9357600080fd5b5035919050565b6001600160a01b03811681146107ef57600080fd5b80151581146107ef57600080fd5b634e487b7160e01b600052604160045260246000fd5b604051601f8201601f1916810167ffffffffffffffff81118282101715610afc57610afc610abd565b604052919050565b600067ffffffffffffffff821115610b1e57610b1e610abd565b5060051b60200190565b600082601f830112610b3957600080fd5b81356020610b4e610b4983610b04565b610ad3565b82815260059290921b84018101918181019086841115610b6d57600080fd5b8286015b84811015610b885780358352918301918301610b71565b509695505050505050565b60008060008060008060c08789031215610bac57600080fd5b8635610bb781610a9a565b9550602087810135610bc881610a9a565b9550604088013594506060880135610bdf81610aaf565b9350608088013567ffffffffffffffff80821115610bfc57600080fd5b818a0191508a601f830112610c1057600080fd5b8135610c1e610b4982610b04565b81815260059190911b8301840190848101908d831115610c3d57600080fd5b938501935b82851015610c64578435610c5581610a9a565b82529385019390850190610c42565b9650505060a08a0135925080831115610c7c57600080fd5b5050610c8a89828a01610b28565b9150509295509295509295565b600060208284031215610ca957600080fd5b8151610cb481610aaf565b9392505050565b600060208284031215610ccd57600080fd5b8151610cb481610a9a565b634e487b7160e01b600052603260045260246000fd5b634e487b7160e01b600052601160045260246000fd5b6000600019821415610d1857610d18610cee565b5060010190565b6000816000190483118215151615610d3957610d39610cee565b500290565b60008219821115610d5157610d51610cee565b500190565b604080825283519082018190526000906020906060840190828701845b82811015610d985781516001600160a01b031684529284019290840190600101610d73565b5050508381038285015284518082528583019183019060005b81811015610dcd57835183529284019291840191600101610db1565b509097965050505050505056fea26469706673582212201e66cc815cf0e59e4f2faab0b7073bebcca2efe7cf22bbfcaecd70f7c0ff7a8264736f6c634300080a0033",
  "devdoc": {
    "kind": "dev",
    "methods": {},
    "version": 1
  },
  "userdoc": {
    "kind": "user",
    "methods": {},
    "version": 1
  },
  "storageLayout": {
    "storage": [
      {
        "astId": 9113,
        "contract": "contracts/SimpleOnboarder.sol:SimpleOnboarderShaman",
        "label": "_status",
        "offset": 0,
        "slot": "0",
        "type": "t_uint256"
      },
      {
        "astId": 8940,
        "contract": "contracts/SimpleOnboarder.sol:SimpleOnboarderShaman",
        "label": "_initialized",
        "offset": 0,
        "slot": "1",
        "type": "t_uint8"
      },
      {
        "astId": 8943,
        "contract": "contracts/SimpleOnboarder.sol:SimpleOnboarderShaman",
        "label": "_initializing",
        "offset": 1,
        "slot": "1",
        "type": "t_bool"
      },
      {
        "astId": 13663,
        "contract": "contracts/SimpleOnboarder.sol:SimpleOnboarderShaman",
        "label": "expiery",
        "offset": 0,
        "slot": "2",
        "type": "t_uint256"
      },
      {
        "astId": 13665,
        "contract": "contracts/SimpleOnboarder.sol:SimpleOnboarderShaman",
        "label": "shares",
        "offset": 0,
        "slot": "3",
        "type": "t_bool"
      },
      {
        "astId": 13668,
        "contract": "contracts/SimpleOnboarder.sol:SimpleOnboarderShaman",
        "label": "cuts",
        "offset": 0,
        "slot": "4",
        "type": "t_array(t_address)dyn_storage"
      },
      {
        "astId": 13671,
        "contract": "contracts/SimpleOnboarder.sol:SimpleOnboarderShaman",
        "label": "amounts",
        "offset": 0,
        "slot": "5",
        "type": "t_array(t_uint256)dyn_storage"
      },
      {
        "astId": 13674,
        "contract": "contracts/SimpleOnboarder.sol:SimpleOnboarderShaman",
        "label": "baal",
        "offset": 0,
        "slot": "6",
        "type": "t_contract(IBaal)14453"
      },
      {
        "astId": 13677,
        "contract": "contracts/SimpleOnboarder.sol:SimpleOnboarderShaman",
        "label": "token",
        "offset": 0,
        "slot": "7",
        "type": "t_contract(IERC20)9821"
      }
    ],
    "types": {
      "t_address": {
        "encoding": "inplace",
        "label": "address",
        "numberOfBytes": "20"
      },
      "t_array(t_address)dyn_storage": {
        "base": "t_address",
        "encoding": "dynamic_array",
        "label": "address[]",
        "numberOfBytes": "32"
      },
      "t_array(t_uint256)dyn_storage": {
        "base": "t_uint256",
        "encoding": "dynamic_array",
        "label": "uint256[]",
        "numberOfBytes": "32"
      },
      "t_bool": {
        "encoding": "inplace",
        "label": "bool",
        "numberOfBytes": "1"
      },
      "t_contract(IBaal)14453": {
        "encoding": "inplace",
        "label": "contract IBaal",
        "numberOfBytes": "20"
      },
      "t_contract(IERC20)9821": {
        "encoding": "inplace",
        "label": "contract IERC20",
        "numberOfBytes": "20"
      },
      "t_uint256": {
        "encoding": "inplace",
        "label": "uint256",
        "numberOfBytes": "32"
      },
      "t_uint8": {
        "encoding": "inplace",
        "label": "uint8",
        "numberOfBytes": "1"
      }
    }
  }
}